:20f000007ef00310ce06cc10df86cc0149dd80dd82dd84bdf1318ef06ebdf12a10de860f01
:20f0200093bdf1319e809f888e00009f8c0d932605863abdf7a2bdf184bdf2de240e292b3a
:20f04000bdf24f810427e1bdf20120d034109e829c84351027037ef151c30000270d3406a1
:20f0600083270f350622048d1720bd7ef14854494e592056312e3338204d4336383039042f
:20f080003406bdf24f9f8ea6e49e889c82270510a38424029e80bdf3ba9f8825229f8a3065
:20f0a00002a680810426fa9c82270ea6809f909e8aa7809f8a9e9020ee9e8a9f829f849e1d
:20f0c0008ec6ff5ca680810426f95d2603326239301fcb04301f5aa684812027f78604a783
:20f0e000014f9e829f90d382dd82dd84bdf35624079f829f847ef1409e829f8a9e909c889d
:20f10000270aa6829f909e8aa78220ee35069e88ed819f909e8ea6809f8e9e90a7809f9007
:20f12000810426f039bdf7a23001a684810426f5398ef1398df40f92390d0a7f00000004c4
:20f140008d26534f525259048d1e57484154203f048d15484f57203f048d0d425245414b25
:20f16000048d0553544f50048dc78607bdf7a2dc8cbdf6548620bdf7a235108dad8db27ed1
:20f18000f01c8dad8e0100bdf79781202514817f27f58c0148260486072002a780bdf7a22e
:20f1a00020e581082724811827d8810a2731810d26d50d932705bdf7a220073410bdf13106
:20f1c00035108604a7848e0100398c010027b8301f8608bdf7a28620bdf7a2860820be1a4c
:20f1e00001069320b830018d66810426f8bdf527968c9a8d27149c8226037ef151ec81dd28
:20f200008cbdf7928d0825033406397ef5388d3f9f888ef72da680810426059e881a01394c
:20f220009f909e889f8e9e8ea184261530019f8e9e90a6809f90810426ecec849e8e1cfe92
:20f24000399e90a680810426fa300220c83001a684812027f8398d1a242281412511814662
:20f26000220d80371cfe3981412504815a230d1a0139813025f9813922f580301cfe398ddb
:20f28000ce8de425121f89a6018ddc24e23001c041584fd3861cfe39bdf5063406bdf24fc5
:20f2a000812c270981291a0127157ef1483001bdf4393402bdf24f8129350226ed1cfe302c
:20f2c000019f88adf19e881cfe39bdf24f812d260d30018d092506405082001cfc39bdf20c
:20f2e0004fbdf272242f81241a01266030016fe26fe2a684bdf256254f300134103402ecf8
:20f300006385f0264a5849584958495849ebe0ed62351020dd300134026fe2a684bdf272c2
:20f320002526300134103402ec63584929215849291de363291958492915ebe48900290fbf
:20f34000ed633261351020d335061cfe1cfd39ae6132651a033910df8adc8a830030938446
:20f3600039bdf4f334063410e6f802351032624f39bdf4f33406bdf24f813d27037ef14876
:20f380003001bdf439bdf5273410e7f802351032627ef1f0bdf24f9f888ef3a4bdf21525e9
:20f3a0000234063955535204f2985045454b04f3614d454d04f356049e809c8226031a0321
:20f3c0003910a38426031cfc3924051a011cfd393402860430013001a18426fa35023001de
:20f3e00020d88d5534065fbdf24f813d2723813c261030015cbdf24f813e26113001cb0420
:20f400002013813e265f3001cb04bdf24f813d26043001cb0234048d203410a3631fa84457
:20f420001f8948483404abe0840626014c5fa4622701534f35103263396fe26fe2bdf24ff2
:20f44000812d2717812b260230018d1ce3e4ede4bdf24f812b27f1812d260a30018d0940d3
:20f4600050820020e7350639bdf4db3406bdf24f812a2748812f270335063930018d5c34c5
:20f480001030623406a884bdf51a30e4bdf51a3402861134024f5fa3622406e3621cfe2059
:20f4a000021a016967696659496ae426eaa66132644d2a0430628d66351020b130018d1b04
:20f4c0003404e6623da661e761e6e43da662e76235043dabe4ab61ede42092bdf27f2509d8
:20f4e00034101f01ec84351039bdf2de24fabdf39424f58d113402bdf24f812935022603d6
:20f500003001397ef148bdf35624037ef140bdf24f812826ee30017ef4396d842a08608450
:20f52000600124026a84393402bdf24f810427037ef1483001350239bdf27f24037ef148d6
:20f540003406bdf24f813d27037ef1483001bdf4398dd49f883510ed849e887ef1f0bdf346
:20f56000e25d27037ef2017ef1e7bdf4398db8bdf3b8250f7ef1fdbdf4398dab9f88bdf32b
:20f58000b824037ef151bdf35624037ef140dc883406dc8c3406bdf1fd3506dd8c35107e9e
:20f5a000f1f0bdf24f812c2736813b273d810427258122260630018d422009bdf43934104b
:20f5c0008d473510bdf24f812c2714813b271b810427037ef1483410bdf13135102014c666
:20f5e000078620bdf7a2d59226f73001bdf24f810426b230017ef1f0bdf7a2a68081042641
:20f60000037ef148812226f0394d2a0d405082003402862dbdf7a235028ef648300210a381
:20f620008424058cf65226f40f9010a3842506a3840c9020f5340286309b90bdf7a23502b2
:20f640008cf6522704300220df39271003e80064000a00018ef64c20cfbdf27f253c340628
:20f660009f88863fbdf7a2bdf184bdf24f810427f1bdf2ca240b8ef6aebdf12abdf13120ca
:20f68000e19f8e3510ed849e88bdf24f812c27037ef1ed3001bdf27f24037ef148340634a4
:20f6a000109e8ebdf24f812c26c0300120bc52452d454e544552049e8686346f804a26fbf2
:20f6c0009e807ef1f6bdf2de24084f5fdd88867f2017dd88bdf24f812c27049688200a30ec
:20f6e00001bdf2de24037ef148bdf5273406dc889f88bdf3b89c822728350610a38425286c
:20f700003406ec813410bdf65435108620bdf7a2bdf12a30013410bdf1313510bdf79220df
:20f72000d432628603bdf7a29e887ef1f04c455404f538494604f55e474f544f04f56a471e
:20f740004f53554204f57752455455524e04f527504f4b4504f3715052494e5404f5a249f8
:20f760004e50555404f65952454d04f1e753544f5004f161454e4404f16152554e04f6b7c0
:20f780004c49535404f6c54e455704f00a3f04f5a204bdf7c0270abdf7a7810326037ef18c
:20f7a00059390c927ef7b18d1727fcb6c001847f393402b6c000850227f93502b7c001393e
:13f7c0003402b6c00085202705b6c00120f4850135023938
:00f000010f
